:100000003C280020F1C600002DC70000A1C500005B
:10001000A1C50000A1C50000A1C50000A1C5000048
:10002000A1C50000A1C50000A1C50000A5C1000038
:10003000A1C50000A1C500005DC10000A1C5000070
:10004000C9C50000C9C50000C9C50000C9C5000078
:10005000C9C50000C9C50000C9C50000C9C5000068
:10006000C9C50000C9C50000C9C50000C9C5000058
:10007000C9C50000C9C50000C9C50000C9C5000048
:10008000C9C50000C9C50000C9C50000C9C5000038
:10009000C9C50000C9C50000C9C50000C9C5000028
:1000A000C9C50000C9C50000C9C50000C9C5000018
:1000B000C9C50000C9C50000C9C50000C9C5000008
:1000C000C9C50000C9C50000C9C50000C9C50000F8
:1000D000C9C50000C9C50000C9C500000000000076
:1000E000990C0000000000002DAF0000EA1DADAB30
:1000F0002DC50000EA1DADAB2DC50000EA1DADAB5E
:100100002DC50000EA1DADAB2DC500000803002081
:10011000330A0000EA1DADAB2DC50000EA1DADABF2
:100120002DC50000EA1DADAB2DC50000EA1DADAB2D
:100130002DC500000000000039AF0000EA1DADAB86
:100140002DC500000000000083AF0000EA1DADAB2C
:100150002DC50000EA1DADAB2DC50000EA1DADABFD
:100160002DC50000000000009D070000EA1DADAB9A
:100170002DC50000EA1DADAB2DC50000EA1DADABDD
:100180002DC50000EA1DADAB2DC50000EA1DADABCD
:100190002DC50000EA1DADAB2DC50000000000001C
:1001A00075AF0000EA1DADAB2DC50000EA1DADAB7B
:1001B0002DC50000EA1DADAB2DC50000EA1DADAB9D
:1001C0002DC50000EA1DADAB2DC50000EA1DADAB8D
:1001D0002DC50000EA1DADAB2DC50000EA1DADAB7D
:1001E0002DC50000EA1DADAB2DC50000EA1DADAB6D
:1001F0002DC50000EA1DADAB2DC50000EA1DADAB5D
:100200002DC50000EA1DADAB2DC50000EA1DADAB4C
:100210002DC50000EA1DADAB2DC5000053B94AB98C
:10022000002908BF00281CBF4FF0FF314FF0FF30FE
:1002300000F092B9ADF1080C6DE904CE00F01AF8A7
:10024000DDF804E0DDE9022304B07047430803F061
:100250005533C01A830803F0333300F033301844A9
:1002600000EB101000F00F3000EB002000EB00401E
:10027000000E70472DE9F0478C460E460446089D57
:10028000002B50D18A4217466CD9B2FA82FEBEF1D9
:10029000000F0BD0CEF1200420FA04F401FA0EF680
:1002A00044EA060C02FA0EF700FA0EF44FEA174978
:1002B000220CBCFBF9F01FFA87F809FB10C642EAD2
:1002C000064600FB08F3B34209D9F61900F1FF32E4
:1002D00080F02281B34240F21F8102383E44F61A78
:1002E000A2B2B6FBF9F309FB136642EA064403FB2C
:1002F00008F8A04509D9E41903F1FF3280F00A811A
:10030000A04540F20781023B3C44C8EB040443EAA9
:1003100000400021002D62D024FA0EF400232C604E
:100320006B60BDE8F0878B4207D9002D55D00021C6
:1003300085E841000846BDE8F087B3FA83F100295B
:1003400040F09080B34202D3824200F2F880841AD7
:1003500066EB03060120B446002D40D085E810105E
:10036000BDE8F08712B90127B7FBF2F7B7FA87FEAD
:10037000BEF1000F35D1F31B4FEA17481FFA87FC77
:100380000121B3FBF8F0220C08FB103642EA0646C6
:100390000CFB00F3B34207D9F61900F1FF3202D289
:1003A000B34200F2CE801046F61AA2B2B6FBF8F3C2
:1003B00008FB136642EA06440CFB03FCA44507D97C
:1003C000E41903F1FF3202D2A44500F2B5801346CE
:1003D000CCEB040443EA00409CE729462846BDE8EC
:1003E000F087CEF1200106FA0EF307FA0EF720FA95
:1003F00001F94FEA1748CE4049EA0309B6FBF8FA7B
:100400004FEA194408FB1A661FFA87FC44EA0643C0
:100410000AFB0CF29A4200FA0EF40AD9DB190AF12F
:10042000FF3180F087809A4240F28480AAF1020A6C
:100430003B449B1A1FFA89F9B3FBF8F108FB11330F
:1004400049EA034301FB0CF69E4207D9DB1901F18F
:10045000FF326BD29E4269D902393B449B1B41EA71
:100460000A418EE7C1F1200E22FA0EF48B4023439D
:1004700020FA0EF706FA01F44FEA134C26FA0EF6AC
:100480003C43B6FBFCF9270C0CFB19661FFA83F8FA
:1004900047EA064609FB08F7B74202FA01F200FAFA
:1004A00001FA08D9F61809F1FF3041D2B7423FD915
:1004B000A9F102091E44F61BA0B2B6FBFCF40CFB2A
:1004C000146640EA064704FB08F8B84507D9FF1848
:1004D00004F1FF3028D2B84526D9023C1F4444EA33
:1004E0000940C8EB0707A0FB02894F4544464E462A
:1004F00014D329D065B3BAEB040367EB060707FAF8
:100500000EFECB40CF404EEA030385E88800002171
:10051000BDE8F0871346F8E61046E0E6B8EB0204C3
:1005200069EB03060138E5E70446D8E7114695E78D
:100530008146C0E78A467CE7023B3C4448E70846E0
:100540000AE702383E442FE7C245E7D33E46D1E7EB
:100550002946BDE8F08700BF704700BF90B587B05F
:10056000044602AF10B10146104815E0104800F0F3
:100570001DFEA0227C600123FA80F022BC603B714A
:100580003A8100930B490C4BFC600222381D02F0AB
:1005900095F9014618B1094800F008FE02E0084844
:1005A00000F004FE1437BD4690BD00BFB3DA000072
:1005B000D3DA000044DB00003CDB0000EADA000094
:1005C00010DB000080B5084800AF00F0EFFD0748E1
:1005D00002F0F6F8014628B10548BD46BDE8804066
:1005E00000F0E4BD80BD00BF20DB00005D05000021
:1005F000B3DA0000B0B50A2800AF0446064D04D1B6
:10060000286843680D215B68984728684368E1B211
:100610005B6898472046B0BD7003002080B4034853
:1006200000AFBD4680BC00F0CFBC00BFF5050000A8
:1006300080B5054800AF0CF099F8044B1860FFF73F
:10064000EDFF002080BD00BF54DB000070030020E0
:1006500080B503689B681B68D3F8082100AF32B1EE
:100660000020C3F80801D3F818350B7080BD4FF097
:10067000FF3080BD80B503689B681B6800AFC3F87E
:100680001C15D3F81C21002AFBD00022C3F81C2122
:10069000084680BD80B503689B681B68D3F82401B9
:1006A00000AF18B1D3F88004C3F8800400F00F0045
:1006B00080BD00002DE9F04103689B68054600AF4E
:1006C0001A481C680CF052F843680646D3F80080BC
:1006D0000D2240F201130021C0477368D3F8008057
:1006E000002319460F223046C0470D23C4F80C35AD
:1006F0000F23C4F81435AB684FF4E1321A602B684D
:100700009B681B684FF0EB72C3F824250423C4F8E0
:10071000003500200123C4F81C01C4F80801A360BF
:100720002360034B6B60BDE8F08100BF5BDB000022
:1007300084DB0000B0B51449144BD1F804251D68C2
:1007400000AF0446521B22F07F4003192B4423F0D4
:100750007F43C1F84035D1F804259B1A23F07F432D
:10076000022BEFD9A0420DD3094A0A491378097820
:100770000133DBB2994218BF1370074B4FF40032BC
:10078000C3F80022B0BD00BF001001407803002074
:100790007C0300207403002000E000E02DE9F04716
:1007A0001D4DDFF87C902C78DFF8788000AFE4B244
:1007B0004E46D9F8403143B30023C6F8403198F88B
:1007C0000030DFF864A0A3420BD088F80040DAF8CC
:1007D00000302C78D9F80405C01AE4B220F07F402C
:1007E00003E040F24710FFF7A5FFDAF800300344BA
:1007F00023F07F43CAF8003040F24713B0FBF3F018
:10080000064B18600CF02AFED3E798F80030A3429C
:10081000D2D1BDE8F08700BF7C030020C8020020D1
:1008200000100140740300207803002080B44CF6CF
:100830006A03984228BF184640F2471300AF584356
:10084000BD4680BCFFF776BF80B440F2471000AFD2
:10085000BD4680BCFFF76EBFB0B5134800AF0BF0CC
:1008600085FFE8B14368114D1B68012198470024BA
:1008700040F24713C5F80845C5F840354FF48033BA
:10088000C5F844332246C5F80433012111200BF08A
:1008900041FE11200BF00EFE01232B602046B0BD5F
:1008A0004FF0FF30B0BD00BF62DB00000010014020
:1008B000036890B59B689A688368DC6800AF002085
:1008C00024FA00F3DB0707D500F5A27352F82330B2
:1008D000C3F304238B4204D001300828F0D16FF019
:1008E000120090BD90B50068806800AF006841B903
:1008F000D0F81005012404FA02F202401A600846FA
:1009000090BD6FF0220090BDB0B50068806800AF68
:10091000056851B9012494401BB1C5F80845084643
:10092000B0BDC5F80C451846B0BD6FF02200B0BD93
:1009300090B5836800AF32B11A680A605A681960CE
:10094000BAB9596015E0186898B181420ED15C6857
:10095000086822B9A142186005D1586003E0A1429D
:10096000106008BF5A6000230B6002E00246006876
:10097000EAE7002090BD2DE9F04114460268D0F866
:100980000880926800AF96680D46D1B92146FFF7FE
:100990008FFF002817DBD8F80820012303FA04F49E
:1009A000144300F14002C8F8084046F82250D6F837
:1009B000042303FA00F01043C6F804032846BDE8F8
:1009C000F0816FF02200BDE8F0812DE9F04114467E
:1009D0000268D0F80880926800AF96680D46C1B9E9
:1009E0002146FFF765FF002815DBD8F80820012312
:1009F00003FA04F422EA0404D6F80823C8F80840ED
:100A000003FA00F022EA0000C6F808032846BDE811
:100A1000F0816FF02200BDE8F08180B5002200AFC8
:100A2000012106200BF076FD06200BF043FD00208F
:100A300080BDF8B5036806469B68B46898680023D3
:100A400000AF1D469E464FF0010C00EB8302D2F82A
:100A5000001141B1C2F800E1D2F81015C1F3042130
:100A60000CFA01F10D430133082BEED1A3680620E7
:100A70001D400BF02FFD246844B1A3681D42FAD03D
:100A800063682A46214630469847F4E70620BD466B
:100A9000BDE8F8400BF00EBD2DE9F843144602689E
:100AA000D0F808809268814600AF9568106819B147
:100AB0006FF02200BDE8F88303F44072B2F5807F46
:100AC00005D0B2F5007F0CBF0422002200E00C220A
:100AD00013F0010F04F5E07118BF42F0030240F873
:100AE000212013F0020038D09906E1D55A0607D428
:100AF00013F0040F14BF4FF480364FF4003601E0BA
:100B00004FF44036D8F80C00FFF7A0FB082822D09D
:100B100021464846FFF7CCFE0028D8F80C2008DA1A
:100B2000D34393FAA3F0002BB0FA80F008BF4FF044
:100B3000FF302402012304F4F854834044F00104FC
:100B400000F5A27013433443C8F80C3045F8204038
:100B50000020BDE8F8836FF00400BDE8F8830000D2
:100B600090B500AF4FF02002EFF3118382F31188AC
:100B700010490C7824B983F311886FF0440090BDBC
:100B8000621ED2B20A701AB183F31188002090BDA0
:100B9000094A107828B10C7083F311886FF00A00AD
:100BA00090BD0121117083F311884FF0804359608B
:100BB000107090BD900300209103002080B50022AA
:100BC000104600AF01210BF0A5FC00200BF072FCD9
:100BD000002080BD2DE9F04100AF4FF02002EFF37F
:100BE000118382F31188294A1078441C147010B1C3
:100BF00083F311883DE0264D95F80080B8F1000F91
:100C000006D0107083F311886FF00A00BDE8F08100
:100C100001262E7083F311884FF0804421B34046A3
:100C20000BF058FCC4F80081D4F80433C4F8046312
:100C30002660D4F800114FF0804219B920BF40BFA0
:100C400020BFF6E713F0010F4FF000014FF0010352
:100C5000C2F8001108BFC2F808330E4A0020C2F8DB
:100C600080320BF027FC02E0C4F80011266000235C
:100C70002B704FF08043D3F80C3413F4803F14BF33
:100C800000206FF04300BDE8F08100BF900300201A
:100C90009103002000E000E0F8B54FF080430546E6
:100CA000D3F808C1D3F80423D3F80C44D3F800E1F7
:100CB000D3F80401D3F80C11D3F8106100AF02F09F
:100CC0000102BCF1000F03D04FF0000CC3F808C1C3
:100CD000BEF1000F05D04FF080434FF0000EC3F877
:100CE00000E13AB1E30341BF4FF080430122C3F872
:100CF00008231A6120B14FF080430022C3F8042179
:100D000049B14FF080440021C4F80C112846FFF788
:100D100027FF0123636176B14FF080430021012456
:100D2000C3F810112846C3F80443FFF753FF10B966
:100D3000014BC3F80042F8BD00E000E02DE9F041AE
:100D40004FF0804400AFD4F8186416F48036804623
:100D50000D464CD130460BF0BDFBC4F804610223B4
:100D6000D4F80423C4F804330123C4F81855A3604D
:100D7000D4F804114FF0804319B920BF40BF20BF01
:100D8000F6E7920758BF02224FF00001194EC3F850
:100D900004114FF0010458BFC3F808230020C6F81F
:100DA00080420BF087FB4FF0804300211822C3F8EC
:100DB0000823C3F80C11C3F8101115F003010CD16E
:100DC0001020C3F83805C3F804234046C3F8044391
:100DD000FFF700FF08B9C6F800424FF08043D3F890
:100DE000180480F48030C0F30040BDE8F08100209A
:100DF000BDE8F08100E000E080B5013900AF0346B6
:100E000011F8012F12B103F8012BF9E71A7080BD18
:100E100080B5013800AF013910F8013F11F8012FFA
:100E2000934202D1002BF7D11A46981A80BDF0B533
:100E300000AF92B1013A024490420C46034603D1FE
:100E40001B782278981AF0BD1E782578AE4200F102
:100E5000010001F10101EFD0F2E71046F0BDF0B55D
:100E600081EA000313F0030F00AF034608D0013BF3
:100E70000A4419E0FAB111F8014B03F8014B013AA9
:100E80009C07F7D11E1F0D46541B0C44032C04D99C
:100E900055F8044B46F8044FF6E79408A2EB840299
:100EA000A40023442144E2E7914204D011F8014B0D
:100EB00003F8014FF8E7F0BDF0B5C9B200AF034643
:100EC0009C0704D0C2B103F8011B013AF8E741EADC
:100ED000012444EA04441E46951B1D44032D02D9F7
:100EE00046F8044BF8E7940803EB84041A44944250
:100EF00002D004F8011BFAE7F0BD80B5002000AF76
:100F000080BD00000B6880B401330B60024B1B688E
:100F100000AFBD4680BC1847200000202DE9F04FEF
:100F200083B000AF1C4ED7F830A0BAF1010FB8BFA4
:100F30004FF0010A002B14BF3023202314468046B3
:100F400089467B600A25002206F1010B0AB9A642F8
:100F500006D2B4FBFBF049463030C047012206E020
:100F6000AA4504DB494678683A60C0473A68B4FB52
:100F7000FBF1013D012D4FF00A030BFB1144B6FBC1
:100F8000F3F6E1D1494604F1300043460C37BD4643
:100F9000BDE8F04F184700BFFFC99A3BB0B50A68DB
:100FA0008B6800AF12B14C68A34202DB01338B6047
:100FB000B0BD651EAB420BBF8C605C1C00218C6019
:100FC0000CBFD154D054B0BD80B5024B00AF1860F7
:100FD00080BD00BF200000202DE9F04F89B00546FC
:100FE00002AF0E469A4602F1FF3B4FF0FF384FF03A
:100FF00000094C461BF8010F002800F0D3802CB9E3
:10100000252800F0C7803146A847F3E7682800F09C
:10101000C48012D8392807D8312833D2252800F0C7
:10102000AE80302826D0ACE0632800F0A080642891
:1010300034D0582840F0A58051E0732800F0878014
:1010400008D86C2800F0A98070283ED0692840F0AC
:10105000988023E0782842D07A2800F09E80752876
:1010600040F08F80CDF800800AF104044B46DAF896
:10107000002025E0B8F1000F0ADAB9F1000F00F006
:101080008E8002E0B8F1000F02DAA0F1300884E0AF
:101090000A2303FB0808A8F130087EE00AF10404E3
:1010A000DAF800A0BAF1000F06DA31462D20A84781
:1010B000CAF1000A08F1FF38CDF800804B465246CD
:1010C00031462846FFF72AFF57E031463020A8472F
:1010D00031467820A8474FF008084FF001090AF17F
:1010E0000403B9F1000F7B61DAF800303B614FF087
:1010F000080A14BF30232023FB6000225446013C21
:101100003969A30021FA03F313F00F0302D132B9B6
:1011100064B904E0092B8CBF5720302000E0302058
:1011200018443146A847534601220AE0D0450AF147
:10113000FF3306DB3146F8687A60BB60A8477A68FF
:10114000BB680CB19A46DAE7D7F814A052E7DAF890
:1011500000400AF10403013C14F8010F20B13146AC
:101160007B61A8477B69F7E79A46044642E7314628
:10117000DAF800000AF10404A847A24608E0314664
:1011800005E031462520A8479BF800003146A847D6
:1011900000242FE74FF0FF38A14601242AE74FF043
:1011A000010926E71C37BD46BDE8F08F0FB480B5B6
:1011B00082B000AF07F11003002153F8042B06485A
:1011C00087E80A003946FFF707FF38680837BD4649
:1011D000BDE8804004B07047050F00000CB4B0B506
:1011E00084B000AF07F12003044653F8042B786065
:1011F000B9600025391D0848FD603B60FFF7ECFE33
:10120000F868BB68984207F11007B8BF2554BD467F
:10121000BDE8B04002B070479D0F000080B500AF40
:1012200080BDB0B58B4200AF15461C4605D81A46A6
:101230002946FFF714FE2046B0BD0020B0BD80B4A3
:1012400000AFBD4680BCFFF737BE00002DE9F04F70
:101250009FB000AF0368FB624368BB6283687B6238
:10126000C3683B620369FB614369BB6183697B615E
:10127000C3693B619C467B693B63D7F818B07B6AC6
:10128000FA69D7F820A0D7F828E0FC6A7B6304311C
:10129000002611F8033C11F8045C1B0443EA0563C3
:1012A00011F8015C2B4311F8025C43EA052307F1B6
:1012B00038054FEAF22945F826303D6B02EA0B0863
:1012C00089EAB21925EA020585EA080589EA726900
:1012D000A9445A4D55F82650A9444B449C447B6B75
:1012E0007D6B4FEA743883EA0E030EEA050588EA3F
:1012F000B40823406B4088EAB45801364344102EAA
:101300000CEB0A05634401F10401D7F834A0D7F8C7
:1013100030C008D0C7F830B0C7F834E09346A646CE
:101320002A461C46B5E74649F960711CB96007F1C9
:10133000780C01F00F010CEB810107F1780851F8EE
:1013400040AC06F10E0101F00F0108EB810106F03F
:101350000F0851F8409C4FEAF94181EA794109367A
:10136000796006F00F0607F1780101EB880801EBC0
:10137000860658F8401C56F8406C4FEABA4C8CEA86
:10138000FA1C0E4479688CEADA0C664481EA9921E9
:101390000E444FEAF52C48F8406C8CEAB51C2BEA59
:1013A000050805EA020188EA01018CEA756C8C44A3
:1013B000F96851F8048FF960C444396BC7F830B04C
:1013C000B44461440E468EEA040C4FEA733181EA5C
:1013D000B3010CEA030C04EA0E0881EAB3518CEA6B
:1013E000080C8C44796BC7F834E03144B444BE68CF
:1013F000402E8A4606D09346A6462A461C465546A7
:10140000634692E7F96A61440160B96A19447B6AEC
:101410004160234483603B6A7344C360FB69534467
:101420000361BB692B4443617B69134483613B695E
:101430007C375B44C361BD46BDE8F08FD8DB00005C
:1014400014DC000098B5044600AFC0B17022002142
:10145000FFF7F5FE0A480B490B4A0C4B84E80F00D6
:101460000B4B23610B4B63610B4BA36103F1745373
:10147000A3F52303A3F69243E361012098BD98BD31
:1014800067E6096A85AE67BB72F36E3C3AF54FA515
:101490007F520E518C68059BABD9831F2DE9F84311
:1014A0000C4600AF054620B329B3FAB18E1800F1FF
:1014B00028084FF0000917E0AB6E5A1CAA662B44AF
:1014C00014F8011B83F828103F2A0DD941462846FD
:1014D000FFF7BCFED5E9082312F5007243F10003C3
:1014E000C5E90823C5F86890B442E5D10120BDE8FC
:1014F000F883BDE8F8830846BDE8F883F8B50C46E4
:1015000000AF054600285FD000295ED0896ED4E97F
:101510000823C800121843F10003481C2144C4E901
:10152000082338284FF08003A06604F1280681F8CC
:1015300028300BD9C0F1400200213044FFF77FFE74
:1015400031462046FFF782FE0023A366A06E0021ED
:10155000C0F138023044FFF772FE226A636A84F8F1
:101560006720110A84F86610110C120E84F86420AA
:101570001A0A84F8633084F862201A0C1B0E84F86F
:10158000651084F860303146204684F86120FFF70A
:101590005DFE2B1D211F05F1240051F8042F03F8D7
:1015A000012C150E03F8045C150C03F8035C150AF6
:1015B00003F8025C04338342EFD1204670220021FD
:1015C000FFF73DFE0120F8BDF8BD0846F8BD90B517
:1015D000013900AF0244034693420BD011F8014F8A
:1015E00084F0360403F8014B0C7884F05C0483F833
:1015F0003F40F1E736215C24131A3F2B04D802F850
:10160000011B82F83F40F7E790BD2DE9F041BCB0E7
:101610000E4600AF1446054670B371B37AB3D31DBE
:1016200023F00703402AADEB030D00F170080FD83B
:101630003846FFF707FF224669463846FFF72EFF78
:10164000394607F19000FFF759FF224631460EE078
:10165000FFF7F8FE2246314605F190042846FFF7D1
:101660001DFF29462046FFF749FF2022214640461C
:10167000FFF7ADFF012003E002E0084600E010465E
:10168000F037BD46BDE8F08198B5044600AF48B1DB
:10169000FFF7D8FE402204F170012046FFF7FEFE5E
:1016A000012098BD98BD80B500AF18B1FFF7F6FED8
:1016B000012080BD80BDF8B50E4600AF144605463A
:1016C000F0B120291DD1F2B11146FFF717FF2046D6
:1016D000FFF7B8FE04F1B00140222046FFF7DEFE1E
:1016E000324629462046FFF7D9FE21462846FFF715
:1016F00005FF2046F0220021FFF7A1FD0120F8BDE3
:10170000F8BD0020F8BD1046F8BD2DE9F04782B0C5
:10171000044600AF002304F588754FF00108BB7143
:101720008946924687F80780FFF7AEFF29462022B8
:101730002046FFF7B8FF4246B91D2046FFF7B3FF2A
:1017400004F1F006524649462046FFF7ACFF224618
:1017500020213046FFF7AFFF314620222046FFF719
:1017600054FF2046FFF790FF294620222046FFF72E
:101770009AFF224620212846FFF79DFF2046FFF7CB
:1017800083FF294620222046FFF78DFF4246F91DA0
:101790002046FFF788FF524649462046FFF783FF61
:1017A000224620213046FFF786FF31462022204680
:1017B000FFF72BFF2046FFF767FF29462022204630
:1017C000FFF771FF224620212846FFF774FF0837F4
:1017D000BD46BDE8F0872DE9F0410C4600AF9046CC
:1017E0000546E8B1F1B100F1F006304620220021B3
:1017F000FFF725FD05F5887020220121FFF71FFD69
:10180000314620222846FFF700FF2846424621465F
:10181000FFF77BFF0023C5F830310120BDE8F081E0
:10182000BDE8F0810846BDE8F0812DE9F04100AF48
:1018300096469846BC69054690B199B11F2A14D9BD
:101840002BB1ACB1FFF761FF224641462846FFF7B6
:101850005CFF4FF0FF33C5F830310120BDE8F08167
:10186000BDE8F0810846BDE8F0810020BDE8F081C8
:101870002046BDE8F0812DE9F8430E4600AF14463E
:10188000054688B392B34B1EB3F5002F31D2D2F880
:1018900030318BB3013BC2F8303102F588782046F5
:1018A000FFF7F2FE202241462046FFF7FCFE2246CB
:1018B00020214046FFF7FFFE202EB14628BF4FF003
:1018C000200928464B4642464946FFF7AAFC202EEF
:1018D0004D4407D8204620224146FFF716FF01203D
:1018E000BDE8F883203EDAE7BDE8F8831046BDE89E
:1018F000F8830020BDE8F8834FF0FF30BDE8F8839F
:1019000080B5C38A18441B3000AF20F0030080BDAF
:10191000F0B50B4D8BB006460FCD00AF3C1D0FC48C
:101920000FCD0FC4082E2B6823609BBF07F128033F
:1019300003EB8606034856F8240C2C37BD46F0BD51
:1019400074DA0000F5DC000080B500AFBFF35F8FF4
:1019500050E8003F43EA010240E8002EBEF1000FCC
:10196000F6D1BFF35F8F184680BD80B500AFBFF3DF
:101970005F8F50E8003F03EA010240E8002EBEF10D
:10198000000FF6D1BFF35F8F184680BD2DE9F043FD
:1019900085B0804604AF91464FF02003EFF31185E8
:1019A00083F311881E4ED6F8A84094B12046FFF765
:1019B000A7FF4388434512D01A4A02931A4B039259
:1019C0000093CDF80480194B194A1A491A48FFF7B9
:1019D000EDFB85F311880437BD46BDE8F083002296
:1019E000C6F8A82085F311882046FFF789FF4668CE
:1019F00005466EB109B1426003E048460AF0ACFA10
:101A0000686030460437BD46BDE8F0430BF0D7BCF4
:101A100020460437BD46BDE8F0430AF087BA00BF50
:101A2000600000204EDD000053DD00005FEE00008E
:101A3000FDDC000004DD000007DD0000B0B588B06B
:101A4000037806AF04460D461BB1012B06D11049A1
:101A500000E010493846FFF7CFF904E00E4A0721AD
:101A60003846FFF7BBFB62780492A2780392E278D3
:101A7000029222790192627905970092A379074A2E
:101A80001B212846FFF7AAFB0837BD46B0BD00BFA3
:101A900062DD00005BDD000069DD000070DD00003C
:101AA00080B5084BBFF35F8F420903EB820300F060
:101AB0001F00DB6EBFF35F8F43FA00F000AF00F052
:101AC000010080BD600000202DE9F041054600AF17
:101AD0000E4610484FF0FF310AF0BCF900210446D1
:101AE0000AF00EFA2046FFF70BFF00220270204694
:101AF000FFF706FF45802046FFF702FF0321426003
:101B000004F110000AF02EFA867005802046BDE828
:101B1000F08100BF40000020F0B585B0164600AF50
:101B20000D4619B9FFF7D0FF0546B8B101220021D3
:101B300038460BF03DFC2846FFF7E2FE2946476099
:101B400012480AF0E4F94FF0FF3138460BF04BFC35
:101B50002846FFF7D5FE406818B90EE06FF0360052
:101B600010E016B10024306002E00AF0DFF93446DC
:101B700028460AF0DBF9204604E06FF00404002E4A
:101B8000F1D1F5E71437BD46F0BD00BF1C010020C0
:101B9000F8B5154D00AF062205F108010646FFF71E
:101BA00046F900B3062142F20500FFF78DFF044617
:101BB000A8B10622314610300AF0DCF92146002295
:101BC00042F20500FFF7A8FF044658B90622314645
:101BD00005F10800FFF743F90123EB7102E06FF014
:101BE0003600F8BD2046F8BD60000020B0B582B0D8
:101BF000072000AFFFF754FF60B3022142F20C0050
:101C0000FFF762FF044640B3022110300AF0AAF940
:101C1000022205460021FFF74FF900236B702B705D
:101C20003A1D214642F20C00FFF776FFB8B97B68F7
:101C30001B691C784CB96FF080010A48FFF795FECC
:101C40006FF400710748FFF790FE78680AF06EF9AC
:101C5000204604E06FF0440001E06FF036000837E2
:101C6000BD46B0BDCC0000202DE9F0470C4600AFCA
:101C7000202180469146FFF727FF0646002842D0E4
:101C8000202110300AF06EF9202200210546FFF7CE
:101C900013F94FF0000ACA452DD063782878034421
:101CA00002331F2B04F1080406DD30460AF03EF92A
:101CB0006FF01500BDE8F087431CDBB22B7014F801
:101CC000072C291802300132C0B24A702B44287008
:101CD00014F8082C5A70284414F8072C54F8041CE3
:101CE0000130FFF7BCF82A7814F8073C13442B7036
:101CF0000AF1010ACFE7002231464046BD46BDE861
:101D0000F047FFF709BF6FF03600BDE8F08700002D
:101D1000B0B58CB0002502AF3A46002142F218005F
:101D2000FFF7FAFE044640BB3B6808221969BB185E
:101D300058190131FFF793F8083538680AF0F6F8BA
:101D4000202DE9D10BF07EFB0823C7E900010093A9
:101D50002A463B4607F108010A48FFF766FD60B9CD
:101D6000094B0193094B0093094A0A4B0A490B4856
:101D7000FFF71CFA6FF0040000E020462837BD464C
:101D8000B0BD00BFD80300204EDD000053DD0000D1
:101D9000FDDC0000E9ED000004DD0000B1DD000025
:101DA000B0B50B4A00AF04460D46FFF764FD431C77
:101DB00007D1FFF7ADFF48B9054A29462046FFF78E
:101DC0005AFD01280CBF00206FF00400B0BD00BF19
:101DD000D803002080B582B000AF06213846FFF757
:101DE000DFFF30B97B79384603F03F037B71FFF7A3
:101DF000CFFE0837BD4680BD80B5082000AFFFF795
:101E00004FFE40B90720FFF74BFE20B1BD46BDE8AD
:101E10008040FFF7EBBE002080BD98B5012300AFE6
:101E20000446062100F8013BFFF7BAFF18B9A37971
:101E300063F03F03A37198BD2DE9F04391B006AF65
:101E40003A1D002140F60340FFF766FE002840F0EF
:101E500094807B681B691B786BB9B24A1360B24BE4
:101E6000BFF35F8F012253E8001F43E800200028E2
:101E7000F9D1BFF35F8F78680AF058F807F10C02C8
:101E8000002142F21800FFF747FED0B9FB68A748CF
:101E9000196908220131FFF79EFC0446F8680AF030
:101EA00045F864B9A24B0193A24B0093A24AA34BFD
:101EB000A349A448FFF77AF96FF0040406E2FFF79C
:101EC00027FF0446002840F0018201463A1D41F2F6
:101ED0000300FFF721FE00284FD17B689A4D196956
:101EE0000822013105F11600FEF7B9FF78680AF003
:101EF0001DF83A1D214641F20100FFF70DFE0028B2
:101F00003BD1786803695A78AA73D9789A7842EAFB
:101F100001222A821A79EA73197ADA7942EA0122CD
:101F20006A825A799B7942EA0323AB8209F0FEFF69
:101F30003A1D214641F20900FFF7EEFDE8B97B6842
:101F4000196906220131681CFEF789FF78682C7038
:101F500009F0ECFF3A1D214641F20200FFF7DCFDDB
:101F600058B97B6819694022013105F11E00FEF75E
:101F700076FF786809F0DAFF03E00446002840F0B5
:101F8000A581714DAB7E59060CD4694B0193694B09
:101F90000093694A6D4B6A496D48FFF707F96FF086
:101FA000120493E107F10C084246002142F20300BB
:101FB000FFF7B2FD0446002840F08280FB681969F3
:101FC0000822013105F17000FEF749FFF86809F0B9
:101FD000ADFF4246214642F20200FFF79DFD002878
:101FE0006DD1FB681B69B3F80120A5F880202AB1E8
:101FF000DA7805F1840011460BF0DAF9F86809F097
:1020000095FFAB7E03F0200303F0FF062BB195F89C
:102010003A304D4C1A0719D428E0022140F66D40A1
:10202000FFF752FD0446002800F0408102211030E5
:1020300009F098FF0123037046703246214640F6AE
:102040006D40FFF769FD0028E1D038E042460021ED
:1020500042F21C00FFF760FD88BBF868036953F883
:10206000012F5B68E367A26709F060FF082142F275
:102070000100FFF729FD0646002800F0178108211E
:10208000103009F06FFF044608220021FEF714FF0C
:10209000237843F00202227095F8402002F00602F5
:1020A000062A06D163F07D032370637843F00103B1
:1020B00063700022314642F20100FFF72DFD044615
:1020C000002C40F00381AB7E1F4E9B0608D50821F3
:1020D00040F60140FFF7F8FC064600283AD1E5E05B
:1020E000B6F88030002BF2D14246214641F205007D
:1020F000FFF712FDA0B9B6F880306BB9FB681B6919
:1021000099785A7842EA0122A6F880209A8806F146
:10211000840011460BF04CF9F86809F007FFD6E788
:102120000446D3E014050020CC000020D803002092
:102130004EDD000053DD0000FDDC0000F5ED000089
:1021400004DD0000D8DD0000600000201DEE00006E
:1021500002DE00000821103009F004FF04460822C6
:102160000021FEF7A9FE637863F01F036370E37834
:1021700043F00203E370E37943F02003E3710022AC
:10218000314640F60140FFF7C7FC0446002840F006
:102190009D8078600722C7F80700391D4E48FEF77A
:1021A00046FE00284DD14D4B1A681E462AB94A48B2
:1021B000FFF733FE014648B17BE0D2F80090464A73
:1021C00007232146C8470728F1D11AE0336873B1C5
:1021D0005E68414A0723B047072812D0404B01935D
:1021E000404B0093404A414B4149424807E03C4B39
:1021F0000193414B0093414A3C4B3D494048FEF717
:10220000D5FF2B78344E012B04D1B37903F0C003F2
:10221000C02B0CD0324B0193324B0093324A334BDC
:1022200033493848FEF7C2FF6FF0150444E0701CD4
:10223000FFF7AEFC00283ED1042106F16C00FFF749
:1022400083FB314E24484146FFF7F8FB8DE84001FF
:102250002E4B2F4A264902962E48FEF7A7FF95F8E7
:102260000E804046FFF754FBAB8A04932B8A0393FE
:10227000CDF808800190254B254A1D49059600960A
:102280002548FEF793FF95F80F804046FFF740FB87
:102290006B8A039301900496CDF8088000961B4B3F
:1022A0001B4A13491D48FEF781FF0FE06FF036040B
:1022B0000CE0044600E00446094B0193094B0093EF
:1022C000094A174B0A491748FEF770FF20462C377A
:1022D000BD46BDE8F08300BF60000020B4150020BB
:1022E0004EDD000053DD0000FDDC0000FFED0000CE
:1022F00004DD000036DE0000A2DE000065DE000026
:102300006CDE0000AADE0000D2DA00000FEE000052
:10231000EBDE0000F2DE00000FDF00005DDF0000FA
:1023200025EE000094DF0000B0B500AFFFF784FD9C
:10233000044630B902210748FFF706FB2046FFF7A5
:102340005BFD054B1B6823B12046BD46BDE8B04090
:102350001847B0BDCC000020D403002080B4044B4B
:10236000D3F8CC30DB6800AFBD4680BC184700BF57
:10237000600000202DE9F041224D234E84B0A84694
:1023800004AF4FF0FF3121480BF02DF84FF0FF3133
:102390001F4809F09BFDD5F8A83004467BB11D4BC2
:1023A00000931D4A1D4B1E4901961E48FEF7FEFE76
:1023B000D5F8A80009F0BAFD0023C5F8A8302046DA
:1023C00009F0CAFDC8F8A8002046FFF7C7FF00289B
:1023D000D7D0104B104A12490190009302960F4B30
:1023E0001148FEF7E3FE09480AF0E9FF2046FFF72F
:1023F00087FA00221F214088FFF7C8FA204609F01B
:1024000095FDBEE7600000204EDD0000F8000020D2
:102410001C01002053DD0000FDDC0000CDED0000BC
:1024200004DD0000F5DF0000C3DF00002DE9F04F00
:102430008BB0C3685B8A032B06AF04460AD8754B82
:102440000193754B0093754A754B76497648FEF7B4
:10245000ADFEC6E0FFF754FA0378012B40F0B680DA
:10246000266933780E3B012B40F2C18004F1100540
:102470000221284609F092FD36783E2E40F08F80EA
:1024800026690121284609F089FD3678082E0DD0ED
:10249000092E2ED0022E71D1284609F089FD04F1B3
:1024A0001803F860DFF8B4B1BB6063E0D4F81080C3
:1024B0005E486FF01001FFF758FA98F800304BB9FA
:1024C00008F1010140225A48FEF7C9FC314657483D
:1024D000FFF73AFA574B1D68002D72D098F800208C
:1024E0002B6812B908F1010000E0002098476D68E0
:1024F000F2E7514B20691A681D46002A61D0037823
:102500000BB9013000E00020904700232B6058E019
:1025100009212846D4F8109009F040FDDBF800307E
:10252000E3B199F808304B442846597A796009F0AC
:1025300048FD99F808307968B4F81480A38282467F
:1025400048462B4610F8012BDBF8006049B2B04733
:10255000BB68A4F8148013FA8AF3236199F8081071
:102560002846013109F01AFDFB6803F1FF385FFAD4
:1025700088F3FB60FB68002BCAD122E0A58A2069A2
:10258000294600F055FA234B04932C4B03900093FB
:10259000029501962A4B2B4A22492B480FE0A58A27
:1025A0002069294600F044FA1A4B0493234B039008
:1025B0000093244A254B1B49254802950196FEF7B6
:1025C000F5FD204609F0B2FC00201FE0114A0193FE
:1025D000114B02920093114A114B12491D48FEF70C
:1025E000E5FD204609F0A2FC6FF015000EE0094B56
:1025F0000193094B0093094A144B0A491648FEF708
:10260000D5FD002108460AF023F82FE71437BD4610
:10261000BDE8F08F4EDD000053DD0000FDDC000062
:102620002EEE000004DD000020E00000CC000020C1
:10263000920300201005002018050020A2DE0000F3
:1026400043EE000065DE000049E00000DFED000021
:102650007EE00000B0E00000D4E00000140500209F
:102660002DE9F04182B002AF04460569FFF748F951
:102670000378012B0DD03D4B01933D4B00933D4919
:102680003D4B3E4A3E48FEF791FD0021084609F0C9
:10269000DFFFA38A012B0DD8344B0193344B0093F9
:1026A0003449354B354A3748FEF780FD002108464E
:1026B00009F0CEFF2B780E3B012B44D804F1100615
:1026C0000221304609F06AFC2B780E2B0FD00F2B1D
:1026D00020D12569B5F802800421304609F05EFC5E
:1026E000224629784046FFF751F96B780DE02569BD
:1026F00003213046B5F8018009F050FC23692246D9
:1027000019784046FFF742F92B78BBB11E480AF012
:1027100056FE13E0204609F009FC144B0193144BBC
:102720000093164A144B13491848FEF73FFD002149
:10273000084609F08DFF6FF0150013E0204609F000
:10274000F5FB00200EE0094B0193094B00930B4A67
:10275000094B08490E48FEF729FD0021084609F0FB
:1027600077FFABE7BD46BDE8F08100BF4EDD00005E
:1027700053DD000004DD000036EE0000FDDC00004B
:1027800013E1000057E10000F800002091E1000093
:10279000B4E1000080B5094AD2F8CC3000AF3BB9B3
:1027A000816841B1C16831B1C2F8CC00184680BD22
:1027B0006FF0440080BD6FF0150080BD6000002008
:1027C0002DE9F041314D86B0D5F8CC3006AF8046CA
:1027D00063B92F4B01932F4B00932F4A2F4B304956
:1027E0003048FEF7E3FC6FF012044BE0012105F1E5
:1027F0006C00FFF7A9F810F001043FD12A4B2B4AD7
:10280000C3F800806FF00803029340F20C412346A6
:10281000049403940194009425480AF0D3FFD5F85A
:10282000CC309B689847064660B1194B0293194B10
:1028300001900093184A194B19491E48FEF7B6FC3F
:1028400034461FE0B8F1000F0BD1FFF7F5FAC0B91D
:10285000022105F16C00FFF777F82046FFF7CCFA6C
:1028600010E0012105F16800FFF76EF8C30709D4F5
:1028700005F1600110480AF00DF803E06FF0440420
:1028800000E004462046BD46BDE8F081600000201F
:102890004EDD000053DD0000FDDC000055EE0000C1
:1028A00004DD0000F2E10000D403002075230000E5
:1028B000D81500201BE20000C81500202DE9F843C0
:1028C0009946037813F0010F00AF0546164643887A
:1028D00004D19F2B02D86FF015048FE0A8888342A3
:1028E000F9D81F2BF7D9B0F5804FF4D80520FFF7A2
:1028F000D7F8044600287AD1324642F20800FFF7A2
:10290000B3F9002879D1B9F1000F0AD12B78DA0791
:1029100007D40F2142F20600FFF7D6F8804648B9E7
:1029200068E03A6A494642F20900FFF79DF900283B
:10293000EFD062E00F21103009F014FB0F220646A1
:102940000021FEF7B9FA6B883380AB8873800723C8
:1029500073732B78DB070BD50220FFF7A1F810B1BA
:102960002848FFF715F9284B1B787371002318E0EE
:10297000A86830B1437913F0C00FACD1FFF708F964
:1029800001E0FFF727FA054618B1404609F0CEFAF4
:102990002BE001237371B9F1000F01D0022300E095
:1029A000032333710022414642F20600FFF7B4F8D8
:1029B0000546D0B9012142F20A00FFF785F8064624
:1029C000C0B10121103009F0E0FA2A46314642F246
:1029D0000A00FFF7A1F880B920210C48FEF7B4FFE8
:1029E00040210A48FEF7B0FF08E02C4606E06FF0F1
:1029F000440403E06FF0360400E004462046BDE8DE
:102A0000F88300BF6100002060000020CC0000209F
:102A100098B5014600AF054809F01CFA044610B10C
:102A2000002109F06DFA204698BD00BF2400002067
:102A3000F0B500AF4FF02003EFF3118583F3118859
:102A4000144C154E237803EBC312013303F0030338
:102A50003244237085F31188402928BF40210F4D4F
:102A60000138134602EB4106B3420DD010F8014F76
:102A7000240902332C5D03F8024C047804F00F049F
:102A80002C5D03F8014CEFE7002302F811301046EB
:102A9000F0BD00BF1C0500201D0500206CEE0000ED
:102AA0002DE9F04182B01860C31D054623F00303F1
:102AB000501E0E4680B214461A8000AF0422002138
:102AC00006FB0050FEF7F8F9023CA4B24FF6FF787F
:102AD00044450CD004FB06602B180422801BB91857
:102AE0002844013C7B60A4B2FEF7B9F9F0E708374F
:102AF000BD46BDE8F081F0B583B0056800AF06467D
:102B00008DB1EB1D23F0030304221C882946B8185D
:102B1000FEF7A5F97B68013CA4B21BB1DA1D22F0D7
:102B200003021480336028460C37BD46F0BDF8B56B
:102B30000B6800AF06460D4623B1073323F00303AD
:102B40001C8800E01C46042229463046FEF787F91F
:102B5000F21D22F00302631C13802E60F8BD80B5C5
:102B600000AF18B1073020F00300008880BD80B5A9
:102B700002FB010000AF80BD80B5401A00AF80B2FB
:102B800090FBF2F080BD80B50A4400AF01388A4264
:102B900004D012F8013D00F8013FF8E780BD80B590
:102BA000106000AF086080BD136880B519601368BD
:102BB00000AF58601160084680BD80B5814200AF0B
:102BC00003D022B14B68136001E0002080BD0846AD
:102BD00080BD80B50B68834200AF03D02AB158682E
:102BE000106002E000231B68FFDE1A680A601846C6
:102BF00080BD00002DE9F843DFF83480DFF8349021
:102C000000AF0424013CE4B2FF2C0ED00425A60042
:102C1000013DEDB2FF2DF5D07019C00008EB0001A9
:102C20000A1D4844FFF7BBFFF2E7BDE8F88300BF89
:102C3000A4070020240700202DE9F041054600AF3D
:102C40000E461C460AB101230AE008F0ADFB00283D
:102C5000F9D03146284608F07BFBB0FA80F35B09D7
:102C600062782078801A10F003080BD033B1B8F1E5
:102C7000010F20D00132D2B2227017E00232D2B25C
:102C8000227000E02BB9E368A06898470020BDE8F7
:102C9000F0810132D2B2094B227005EB860203EBC0
:102CA000C202043261682046FFF77EFF31462846A3
:102CB00008F08EFBEAE74046BDE8F081A40700205B
:102CC0002DE9F04FDFF8A4A085B0834600AF0424BF
:102CD000013CE4B2FF2C44D007F1100904EB8B0651
:102CE000002349F8043D0AEBC6054A465AF8361057
:102CF0006868FFF762FF7E608046B8F1000FE7D09A
:102D0000FB681E785A78B61A06F00306012E04D125
:102D1000013A5A709868DA689047FA6813785278DE
:102D2000DBB29A1A02F00302012A3B6009D00022AA
:102D300029466868FFF74DFFFA683B68C2F80480CF
:102D400053700A4B7968686853F831104A46FFF7A8
:102D500034FF012E8046D0D118B15946584608F0AC
:102D600037FB1437BD46BDE8F08F00BFA407002035
:102D700090B5421E00AF00200139C9B2FF2908D02A
:102D800012F8013F002BF7D05C1E01302340C0B287
:102D9000F8E790BD80B5064B0022C3F808254FF434
:102DA0004032C3F8442300AFC3F8042380BD00BF02
:102DB00000B0004080B5064B1878421C1A7000AF76
:102DC000012310B9034A136080BD184680BD00BFBF
:102DD0002408002000B00040B0B50F4C82B0257828
:102DE00002AF6DB90D4B01930D4B00930D490E4B86
:102DF0000E4A0F48FEF7DAF92946284609F028FC62
:102E000020780138C0B22070012310B9094A5360FC
:102E100000E01846BD46B0BD240800204EDD00008D
:102E200053DD000004DD00007DEE0000FDDC00004D
:102E3000D5E2000000B0004080B5024B00AFD3F8EF
:102E4000040580BD00B0004080B500F5A870024BBD
:102E500000AF43F8201080BD00B00040B0B5042999
:102E600082B0044602AF0D460DD8104B0193104BB3
:102E700000931049104B114A1148FEF797F90021B1
:102E8000084609F0E5FB0F4B1C600F4B00210122A7
:102E9000033D2570A1706170C3F80425C3F80011CB
:102EA000C3F804231A60BD46B0BD00BF4EDD00006C
:102EB00053DD000004DD000087EE0000FDDC0000B3
:102EC00000E300002808002000D0004090B5154B1A
:102ED0001A6800AF537880B194789C420DD00138C5
:102EE0001344C0B2DB780B54537814780133DBB24F
:102EF0009C4208BF00235370ECE70521013911F013
:102F0000FF010DD094789C4203D1074B01221A6037
:102F100090BD01331478DBB29C4208BF0023EDE77B
:102F200090BD00BF2808002000D00040B0B5154A71
:102F3000D2F8003100AF1BB3134B196888780C78B6
:102F40004D78431CDBB2A34208BF00239D4205D14C
:102F5000012353600023C2F80031B0BD0844D2F809
:102F60000855C57000208B70C2F800010133497804
:102F7000DBB29C4208BF0023994204BF0123536087
:102F8000B0BD00BF00D0004028080020F0B58DB0D3
:102F900000AF0E4615460146102238461C46FFF784
:102FA000F2FD1022B8183146FFF7EDFD194B012252
:102FB00000201E465A60C3F80475C3F80001C3F828
:102FC00004011A60D3F8001131B9D3F8041119B90A
:102FD000D3F804150029F5D17260D6F80411002940
:102FE000E8D1D3F804E5BEF1000FE3D0094BC3F8F4
:102FF00004152DB1102207F120012846FFF7C3FD6B
:103000002CB1102207F120012046FDF728FF3437AC
:10301000BD46F0BD00E0004080B4054B1B6800AF2A
:1030200013B1BD4680BC1847BD4680BC704700BF89
:10303000400A002080B4084B1860084B1022C3F8E7
:103040000423074B022200AF0120C3F88022BD46B3
:1030500080BC09F02FBA00BF400A002000100040D9
:1030600000E000E080B5012000AF09F033FA044B26
:103070000022C3F8FC2F0122C3F8FC2F80BD00BF43
:103080000010004080B500AF10B100F00F0000E06C
:103090000320024BC3F8100580BD00BF00100040A4
:1030A00080B5024B00AFC3F80C0580BD0010004096
:1030B00080B5024B00AFC3F8080580BD001000408A
:1030C00080B5024B00AFC3F8540580BD001000402E
:1030D0000B4A002380B5C2F82C350123C2F83035E5
:1030E000C378C2F82435437881781B0443EA01632E
:1030F000017843EA012300AFC2F81C3580BD00BF50
:103100000010004080B501F00F03C1F1080109046F
:1031100043F48013002843F4807301F4702141EAE2
:10312000030118BF4FF08070064B08BF002042F02B
:103130000072014342F44032C3F8141500AFC3F8E3
:10314000182580BD0010004080B5024B00AFC3F8C9
:10315000040580BD0010004080B5024B00AFC3F8ED
:10316000040580BD0010004080B5024B012200AF75
:103170005A6080BD0010004080B5024B012200AFB4
:103180001A6080BD0010004080B5044B0022C3F8D7
:103190000022012200AF1A6180BD00BF0010004074
:1031A00080B5074B0022C3F8002100AFC3F804210B
:1031B000C3F80821C3F80C21C3F8102180BD00BF5B
:1031C0000010004080B5024B00AFD3F8000180BD75
:1031D0000010004080B5024B00AFD3F80C0180BD59
:1031E0000010004080B5044BD3F85005B0FA80F0D1
:1031F00000AF400980BD00BF0010004080B5054B06
:1032000040F20312C3F8342500AFC3F83805C3F801
:103210003C1580BD0010004080B5024B00AFD3F8D4
:10322000000480BD0010004080B5014800AF80BDA3
:103230003009002080B5014800AF80BD2C08002077
:1032400080B5034B0B2200AFC3F8002280BD00BF46
:103250000010004080B5034B072200AFC3F80022E6
:1032600080BD00BF0010004080B5034B032200AFBB
:10327000C3F8002280BD00BF0010004080B5044AA2
:10328000D2F8003243F4887300AFC2F8003280BD38
:103290000010004080B5024B00AFD3F8480580BD58
:1032A0000010004080B5034B002200AFC3F81C2182
:1032B00080BD00BF0010004080B5024B00AFD3F8C6
:1032C0001C0180BD00100040B0B5002400AFA30079
:1032D00003F1804303F580531568C3F800560134A9
:1032E0009588C3F82056082C02F10602EFD1034B53
:1032F00040EA0120C3F84006B0BD00BF0010004006
:1033000080B5044AD2F8403623F0FF0300AFC2F87C
:10331000403680BD0010004080B5044B0022C3F849
:10332000142100AFC3F8182180BD00BF0010004079
:1033300080B5024B00AFD3F8140180BD00100040EF
:10334000054B80B5C3F86005D3F8002242F0400277
:1033500000AFC3F8002280BD0010004080B5064BCE
:103360004FF48022C3F8482303F5A033FF2200AFB7
:10337000C3F8082580BD00BF00B0004080B5024BF7
:1033800000AFC3F8440580BD00100040F0B5A2F5C1
:103390007423244CA3F51073A34288BF02F1E87292
:1033A000214C224B88BF02F5D4324FF0000688BF73
:1033B00002F5A5724FF00105B2FBF3F24FF00403E2
:1033C000E560C4F80465C4F81035194B88BF01F1F5
:1033D000FF314FF0020EC4F808E5C4F84025C4F8E8
:1033E0004061C3F848154FF48021C3F84413C3F873
:1033F0004861104903F5A03300AFC3F81815A1F5D3
:1034000040510839C3F81C45C3F804E5C3F810154A
:1034100008B1094900E00949C3F814151046C3F87A
:103420000455F0BDBFBDF07F0080004040420F005A
:1034300000B0004048B100400010004004100040BF
:1034400080B5034B01225A6000AF1A6180BD00BFF6
:10345000008000400F4B002280B5C3F84805C3F838
:10346000482103F5B8330C4AC3F8302502F5DE4293
:103470004432C3F8342502F58072C3F83825A2F52A
:10348000E242383AC3F83C25302200AFC3F80425A5
:1034900080BD00BF00800040041100400C4B0D4A6D
:1034A00080B5C3F8202502F5DE424032C3F824255A
:1034B000A2F5DE423C3AC3F8282502F5DE4240324E
:1034C000C3F82C250C2200AFC3F8042580BD00BF33
:1034D00000F001400011004080B5044BD3F84405D2
:1034E000D3F8403500AFC01A80BD00BF0080004057
:1034F00080B5074B074AC3F8482502F5DE423C3247
:10350000C3F84C25802200AFC3F8042580BD00BF5E
:1035100000F001400C11004080B5024B00AFD3F821
:10352000480580BD00800040154B90B50022022464
:10353000C3F80025C3F80045124CC3F80445C3F88E
:1035400008051148C3F80C05C3F810150F49C3F856
:103550001415C3F800220E49C3F80021C3F8042152
:10356000C3F808210B4AC2F8401501F55F41C2F8C3
:1035700044154021C2F80415012200AF1A6090BD25
:1035800000F00040010000012C0800203409002058
:103590000411004000F0014090B5104B00220224BD
:1035A000C3F80025C3F800454FF08074C3F8044504
:1035B000C3F80805C3F80C1509480A49C3F81005F3
:1035C000C3F814150121C3F8001200AFC3F800219D
:1035D000C3F80421C3F80821196090BD00F0004031
:1035E0002C0800203409002080B50D4B022200AFCA
:1035F000C3F80423D3F80411094A19B920BF40BF06
:1036000020BFF7E70223C2F80833064B4FF400410E
:10361000C3F88012D2F80801B0FA80F0400980BDEA
:1036200000F0004000E000E080B5024B00AFD3F8AE
:10363000000480BD00F0004098B50F4C0123C4F891
:1036400000350E4BC4F80405C4F80815D3F804354A
:10365000C4F810350023C4F8143500AF4020FFF73C
:103660006FFE074B074AC3F840254022C3F8444584
:10367000C3F8042598BD00BF00F0004000100040D2
:1036800000F001402811004080B5024B00AFD3F894
:10369000000480BD00F0004080B5084BD3F828211D
:1036A00000AF3AB1064A0021C2F80011C2F8041175
:1036B000C2F808110022C3F8282180BD0010004084
:1036C00000F0004080B5084BD3F8280100AF48B1A6
:1036D00003F56043D3F8000120B1D3F804010030B2
:1036E00018BF012080BD00BF00100040F0B5037E70
:1036F000046800AF1A460026FF2A0CD002EBC20E67
:103700008A4204EB8E0514F82EE006D0AB681E4406
:1037100013467246F0E70020F0BD934201D180F8D5
:1037200018E01BB203EBC3032978AA6804F823103E
:103730002B78FF2B06D003EBC30304EB83039968BC
:1037400011449960B018F0BDB0B5551A15F4000FCA
:1037500000AF8468838A03D125F07F4222440CE0C5
:103760008A1A22F07F42944201D9A21A05E01B1B5B
:1037700012FA83F39BB2002204E09A4202D9D31AD0
:10378000002202E09B1A9AB2002383608282B0BDBD
:1037900080B4014600AF0120BD4680BCFFF754BB9A
:1037A00080B4014600AF0020BD4680BCFFF74CBB93
:1037B000B0B5012882B002AF11D002D3022813D0D5
:1037C0001BE0012903D002291CD1174B01E0174B44
:1037D00002210020BD46BDE8B040FFF72DBA022906
:1037E00010D1134B0846F5E7012903D0022909D16E
:1037F000104BEFE7104B0146ECE7022902D10F4BCB
:103800000320E7E70E4B01930E4B00930E4A0F4B3C
:103810000F491048FDF7CAFC00210846BD46BDE827
:10382000B04008F015BF00BF70010020400100202B
:10383000A0010020D0010020B0010020E001002004
:103840004EDD000053DD0000FDDC000000EF000055
:1038500004DD000091E1000090B5044683B0012C26
:10386000084602AF0DD002D3022C15D020E001296A
:1038700004D0022922D11A4B012106E0194B002164
:1038800014E002291AD1184B214600200437BD4606
:10389000BDE89040FFF7D0B9012904D002290DD12D
:1038A000124B012102E0124B0021EFE70846EDE741
:1038B000022903D10F4B01210320E7E70E4B0193AF
:1038C0000E4B00930E4A0F4B0F491048FDF76EFC4C
:1038D000002108460437BD46BDE8904008F0B8BE58
:1038E0008001002060010020900100205001002094
:1038F000C0010020300100204EDD000053DD00003B
:10390000FDDC000091EE000004DD000091E100000C
:1039100080B5032882B002AF11D002280FD070B159
:10392000084B0193084B0093084A094B09490A4880
:10393000FDF73CFC0021084608F08AFE0020BD4649
:1039400080BD00BF4EDD000053DD0000FDDC000047
:10395000A8EE000004DD000091E1000080B503281E
:1039600082B002AF15D0012810D088B10A4B019364
:103970000A4B00930A4A0B4B0B490C48FDF716FC07
:103980000021084608F064FE002002E0022000E06A
:103990000120BD4680BD00BF4EDD000053DD0000AC
:1039A000FDDC0000E1EE000004DD000091E100001C
:1039B0002DE9F047057F012300AF04464377002D32
:1039C0004DD1037EFF2B02D14577BDE8F087FFF78D
:1039D00033FA6369267ED4F80090C01A20F07F483D
:1039E000FF2E06D006EBC60609EB86018B68434521
:1039F0000AD9A27AE37A934223D10133DBB2022BB4
:103A000008BF0023E3721CE0C3EB08081D448A785A
:103A10004B7819F826609B1ADBB2012BE0D1D1F864
:103A20000CA0013A8A70BAF1000FD9D06369888A74
:103A30004A8B181A28440B69096A20F07F40D04746
:103A4000CEE7E37A04EB83030122DD600023637792
:103A5000636A02211046BD46BDE8F0471847BDE83D
:103A6000F08700002DE9F04F93B0427F02AF04468B
:103A7000002A40F0AE8343697B620121837A01779B
:103A8000C07A984210D00B44DBB2022B08BF00234F
:103A9000A37204EB83037963D3F80CB07B6A5B44B5
:103AA00023F07F43636101E07A639346237EFB62E8
:103AB00023683B6363687B61637ABB63FF23FB63BB
:103AC0000023FB61BB6B002B00F0F280BB6B5E1E22
:103AD000F3B2BB63BA6B7B6903EBC208D8F804305E
:103AE000BB6298F8031098F802908945EAD02C231D
:103AF00019FB03F2BB6A98F800009E1809F1010354
:103B0000DBB2984208BF002388F80230BB6A9A5C97
:103B1000032AE8D9052A17D8717801EBC103BB61E4
:103B2000B8693B6B03EB80056B78A8781B1A13F020
:103B3000FF0309D0042A0BD172684AB9B2683AB9B6
:103B4000F26822F07F421AB90023337001209EE010
:103B5000012B40F0A4802046FFF7C8FD3378A86011
:103B6000042B824640F08780D4F81490FFF764F964
:103B7000C9EB000E2EF07F4E0EEB0B039A4598BF5B
:103B8000B5F814E038629ABFCAEB0E0E9E44C3EB40
:103B90000A0E6B689CBFA5F814E04FF0000E002BD6
:103BA00043D0B389002B40D0013BB3816868704596
:103BB0001ED2B5F81AC0B389634519D2296A8B4B56
:103BC0008B4A0B44934282BF8A4B5B182B622B6A51
:103BD000E9698CBF4FF0010A4FF0000A5B1A82447A
:103BE0000CF1FF3C2B62CAEB0E0EA5F81AC0DEE703
:103BF000B5F81AC0B3899C4516D2296AEB697C4A8C
:103C00000B447A491944914295BF7B492B62C918EC
:103C1000002398BF012303440CF1010C98BF2962D3
:103C20009E44A5F81AC0E3E72B83B388A98A3A6AB1
:103C30007344AB60F3880B44AB8249462846FFF7D8
:103C400083FDEA8A338913449BB2EB8272899342E3
:103C50008CBF9B1A0023EB82B37B03B1EB703B6BF1
:103C6000BA6997F83C1003F822107378FB636B78FD
:103C700001336B7009E0AB786B707378627E9A42A7
:103C800001BFFF2363760023638300203070736AD3
:103C90003062002B3FF425AFB16A984721E702213B
:103CA000636A01220846984788F80290012308E7D2
:103CB000237EFA6A9B1A18BF0123BB627B6B002B21
:103CC0006ED02368BE6B94F818A0BAF1FF0F60D0D5
:103CD0000FFA8AF909EBC90903EB8905D5F80880C1
:103CE000D84503D9CBEB0803AB6052E0628B90451B
:103CF00029BF4FF0FF32C8EB0202627600226283D6
:103D0000EA8A46441AB184F819A0EA8A628300223A
:103D1000AA6013F829102176D5F804C0BCF1000F71
:103D20002ED0B5F818E0BA63286AE969304A014430
:103D30002E480844904295BF2F4829624018002120
:103D400098BF0121BA6B98BF286261440A441EF1F2
:103D5000FF3EBA63E8D27B637B6AAA6061699A1905
:103D60002846FFF7F1FC2A8B6A837B6B0022EA70FE
:103D700097F83C2003F829206A7801326A7003E042
:103D8000AA78D7F83CA06A70C8EB0B0BC7F83CA028
:103D900099E7BA6A237EF96A8B4218BF0122BA6298
:103DA00023687B636368BB60637A3B633B6B002B78
:103DB00000F038813B6B013BDBB23B633A6BBB6885
:103DC00003EBC2037B6293F801B0FB6BFF2B1DD0AA
:103DD000B7F93C307A6BD7F83CA003EBC30302EB96
:103DE000830512F82330FB63002651E05A2B17FF9E
:103DF000592B177F4AA9D101B6562EFE00238B54AA
:103E0000736A012030620BB1B16A98477B6A9B7874
:103E10005B45CBD02C231BFB03F27B6A59680BF16B
:103E200001035FFA83FB7B6A1B785B4508BF4FF099
:103E3000000B8B5C032B01EB0206E7D196F801A087
:103E40007B6B0AEBCA0503EB85056B7895F802805E
:103E5000C8EB030818F0FF08D0D1F3686B60336932
:103E6000EB61B38A2B83F38AEB82B369EB60F3696E
:103E70002B61B368AB60A5F814807268616928464D
:103E8000FFF762FC0123C5F82080A5F81A80EB70CB
:103E9000FF232B700FFA8AF303EBC3039B007B60B5
:103EA00022687B68618BB963D3183B62D3F80890B2
:103EB000237EBB614FF0FF08FF2B1DD003EBC30C2B
:103EC00002EB8C0EDEF80810894515D9BEF816E015
:103ED000C1EB0909BEF1000F03D0C7F838E09846DE
:103EE00006E0B86B81423ABF411AB963C7F838E0BF
:103EF000BB6112F82C30DFE7396AC98A796101EBBE
:103F0000090C1946FF2914D00FFA81FE0EEBCE0ED4
:103F100002EB8E0038618068F860604508D238692D
:103F2000C08A30B9F968C1EB0C0C12F82E10E9E721
:103F3000FF21786920B1B86B81451CD3FF2921D1BD
:103F4000396AC1F808900B70B9698B4217BFB7F98D
:103F5000181084F818A001EBC10102F821A0FF2B72
:103F600000F02E8103EBC30302EB83039A68C9EBD5
:103F700002029A6024E1C24500F02281B8F1FF0FED
:103F800004D123E08A4500F01B8188460FFA88F9A6
:103F900009EBC903BB63BA6B7B6B13EB820915D0CA
:103FA000EA7899F803309A4210D941462046FFF743
:103FB0009DFB99F8023089F80130BA6B7B6B97F85A
:103FC0003C10C9F8080003F822101AE06968D9B15A
:103FD0002A6AEB698148D7F83C801344804A1A4426
:103FE000824296BF7F4A2B62D218AB6898BF2A6282
:103FF00019446B8B8CBF002201220A440133AA6052
:104000006B83C7F83C804BE70120002E3FF4DDAE08
:1040100000233370736A3062002B3FF4D6AEB16A6E
:104020009847D2E6237EFA6A9342FB6902D1002BBD
:1040300065D104E0002B40F0C8800123BB62657AA3
:104040006368BB63013DEBB2FB634FF02C0B4FF099
:104050000008FB6BFF2B52D0BB6BFA6B03EBC20665
:104060007378F2789A4245D013FB0BF271688B1883
:104070008A5C012A2ED0022A33D1D3F804C09A6870
:104080009CF80000D3F80C90D4F800E0FF2803D08F
:1040900011686569A94204D06069217E1060002220
:1040A00010E000EBC000D9F800201EF8201009E055
:1040B00001EBC10A0EEB8A00C58A80682DB91EF893
:1040C0002A100244FF29F3D100E002448CF80010CA
:1040D000C9F800205A6AC3F8208012B1996A186A98
:1040E0009047737832780133DBB29A4208BF0023DD
:1040F0007370B5E7FB6B5D1EEBB2FB63A9E70023B2
:104100002377BB6A002B50D0237EFF2B05D1FEF70F
:1041100063FE002849D1608347E0FB6AFF2B06D18C
:10412000FEF78AFE0546FEF745FE00B96561237E6F
:104130002268DFF8C490DFF8C4A003EBC30302EBEE
:1041400083030A26D3F80880FEF776FE6569431BD1
:1041500023F07F43033343452CBFED18454425F03E
:104160007F458346A36A28469847FEF765FECBEB5A
:10417000000020F07F40CBEB0505033025F07F45A4
:10418000A84206F1FF3610D9002EDDD1CDF80490FB
:10419000CDF800A0144B154A15491648FDF706F84E
:1041A0003146304608F054FACEE7637F8BB10122E6
:1041B000636A114602204437BD46BDE8F04F1847F8
:1041C000AB7801336B7000201FE797F8303023770E
:1041D0009AE74437BD46BDE8F08F00BF592B177FE3
:1041E0005A2B17FFB6562EFEC7EE0000FDDC00006E
:1041F00004DD000043E300004EDD000053DD00005D
:104200002DE9F04300AF884697F82040F969D7F8C8
:1042100024E048B1012839D11E4D1F4EEE641F4ED7
:104220002E651F4E6E6506E01A4D1E4E2E621E4E06
:104230006E621E4EAE62174E2C2505FB00F906EB92
:10424000090C46F809208CF808808CF80930CCF865
:104250000410013BDBB2FF2B0BD01AB201EBC20CF6
:10426000CCF804E011F83220A41A02FB05EEE4B207
:10427000EFE75CB92C2202FB0060037643764483AF
:1042800044618472C4722046BDE8F0830120BDE819
:10429000F08300BF840A002011390000B13700000C
:1042A000913700005D39000059380000A137000047
:1042B000084A2C2380B403FB002000AF436A2BB1D3
:1042C000012211460020BD4680BC1847BD4680BC77
:1042D000704700BF840A00202DE9F041234D2C24B3
:1042E00004FB00500FFA81F8D0F804C00CEBC80EA4
:1042F0001CF838C09EF80360751CEDB2AC4598BF41
:1043000000259EF801C0AC4500AF2BD0DEF804C0FC
:1043100016FB04F60CEB06044FF003080CF80680BD
:104320006360BB69A360FB69E3603B6A23613B8D0B
:10433000E382BB8CA382FB6AA3613B6BE3617B6B73
:1043400063620226BB6B62702662A3628EF8035022
:10435000456A036A0846984700223146A847206A02
:10436000BDE8F0810120BDE8F08100BF840A002093
:104370002DE9F041214D2C2404FB00500FFA81F867
:10438000D0F804C00CEBC80E1CF838C09EF80360CF
:10439000751CEDB2AC4598BF00259EF801C0AC4538
:1043A00000AF28D0DEF804C016FB04F60CEB0604C0
:1043B0004FF004080CF80680A3803B8BE380BB8B96
:1043C00023813B8C6381BB8CA38197F82830A37336
:1043D000FB6A636202263B6B62702662A3628EF800
:1043E0000350456A036A0846984700223146A847A9
:1043F000206ABDE8F0810120BDE8F081840A002038
:104400002DE9F0411B4C2C2505FB00400FFA81F8EB
:10441000D0F804C00CEBC80E1CF838C09EF803603E
:10442000741CE4B2A44598BF00249EF801C0A445C2
:1044300000AF1BD0DEF804C016FB05F60CEB06053A
:104440004FF005080CF806806B620226BB696A70A3
:104450002E62AB628EF80340446A036A08469847AE
:1044600000223146A047286ABDE8F0810120BDE85E
:10447000F08100BF840A00202DE9F0411E4D2C245C
:1044800004FB00500FFA81F8D0F804C00CEBC80E02
:104490001CF838C09EF80360751CEDB2AC4598BF9F
:1044A00000259EF801C0AC4500AF21D0DEF804C065
:1044B00016FB04F60CEB06044FF002080CF806801D
:1044C000A360BB69E360FB696362FF263B6A6260CD
:1044D0006670C4F82080A3628EF80350456A036AB0
:1044E0000846984700224146A847206ABDE8F08167
:1044F0000120BDE8F08100BF840A00202DE9F041D1
:104500001B4C2C2505FB00400FFA81F8D0F804C0A5
:104510000CEBC80E1CF838C09EF80360741CE4B2A3
:10452000A44598BF00249EF801C0A44500AF1BD04D
:10453000DEF804C016FB05F60CEB06054FF001088B
:104540000CF80680FF266E7002266A622E62AB624D
:104550008EF80340446A036A0846984700223146B1
:10456000A047286ABDE8F0810120BDE8F08100BFC6
:10457000840A0020B0B5084A2C2303FB002000AFBA
:10458000446A036A08469847002202212346BD4632
:10459000BDE8B040184700BF840A002080B400AFD7
:1045A000BD4680BCFEF748BC80B5401A00AF20F085
:1045B0007F4080BD80B500AF20BF40BF20BF80BD21
:1045C00080B5086000AF80BD80B500AF18B90B683A
:1045D00043F000430B6080BD80B500AF18B90B6895
:1045E00023F000430B6080BDF0B5047802FB01119D
:1045F0002144252291FBF2F402FB1412D1B2017086
:10460000C80802F007021C5C00AF44FA02F212F084
:1046100001043D7D1CD1B1FBF5F205FB1210C0B2C7
:104620005D1E214604339D4212D015F8016F00240F
:104630000A19082CD2B208D016F0010F02D030B1FE
:104640000138C0B276080134F2E71146EBE71146B3
:104650000846F0BD80B50A4B93F84E0293F84D2200
:1046600090423BBF93F84D2293F84C3293F84D3271
:10467000C0182CBFC01A801A00AFC0B280BD00BFE6
:10468000440B002090B5104A92F84E3292F84D1229
:10469000994288BF92F84D42114689BF92F84C2248
:1046A00092F84D22121B9B1898BF9B1A9842DFBFAD
:1046B000D1F8483291F84D2253F82200012300AF7F
:1046C000D4BF0371002090BD440B0020F0B590F8DA
:1046D000684090F86930A34200AF3AD190F8443076
:1046E00013F001050BD090F89A309B0733D590F862
:1046F0009B30072B2FD9D0F89C3001332BD1C18CA4
:10470000828CA0F86E10418EA0F86C2000234A43E2
:104710007D2101269D4201FB02F24FF47A7192FB4A
:10472000F1F2A0F8702090F8952080F894600CBF0A
:104730003146022161F3020266F3C402013CC0F873
:104740008C3080F8952080F8694080F86A601846BF
:10475000F0BD0120F0BD0220F0BD0000B0B582B078
:104760000D4690F8B810D0F8002111F0800F02AF7C
:10477000044612D1D0F8FC307BB1090701D5934231
:104780000BD1D4F804118B4204BF1968C4F804118A
:1047900062B91A682A601D6005E03AB9D4F8FC30A5
:1047A0002B60C4F8FC50C4F8005117E01268D4F82C
:1047B00004319A420DD00C4B01930C4B00930C49E1
:1047C0000C4B0D4A0D48FCF7F1FC0021084607F0A0
:1047D0003FFFD4F800311A682A601D602B680BB9BE
:1047E000C4F80851BD46B0BD4EDD000053DD0000E9
:1047F00004DD000071F20000FDDC000066E3000053
:10480000B0B582B0054602AFA1B91448FEF773F9FE
:10481000044668B9124B0193124B00931249134B93
:10482000134A1448FCF7C2FC2146204607F010FF4B
:10483000211D00E000240B7843F003030B700123DB
:104840004B700623CB7034B121462846BD46BDE8E7
:10485000B040FFF783BFBD46B0BD00BFAC0D002028
:104860004EDD000053DD000004DD0000F6F0000026
:10487000FDDC0000B4E30000B0B582B0054602AF35
:104880001048FEF738F9044668B90F4B01930F4BF7
:1048900000930F490F4B104A1048FCF787FC214644
:1048A000204607F0D5FE237943F00303237101234B
:1048B000637121460B232846E371BD46BDE8B04035
:1048C000FFF74CBFAC0D00204EDD000053DD0000B3
:1048D00004DD00002AF10000FDDC0000B4E300006C
:1048E00090B583B00C4602AF68B10B4B01930B4BF4
:1048F00000930B490B4B0C4A0C48FCF757FC00216A
:10490000084607F0A5FE94F8443004376FF304130B
:1049100084F84430BD4690BD4EDD000053DD0000FC
:1049200004DD0000E4F10000FDDC0000DDE3000038
:104930002DE9F843204D95F84E4295F8606295F8C0
:104940004C320134E4B2A34208BF0024864200AFD7
:1049500028BF0646A94666B395F84D329C4228D03A
:104960001648FEF7C8F8804618B31548FEF7C3F896
:1049700030B912494046BD46BDE8F843FEF7D7B806
:10498000C0F8008099F84E22D9F8483243F8220046
:1049900089F84E4299F84C320134E4B2A34208BF80
:1049A000002495F86032013E013B85F86032F6B292
:1049B000D1E7BDE8F88300BF440B0020980D00202C
:1049C000800D0020B0B5384C82B094F8202202AFA0
:1049D00042B104F507734FF48871D4F81802FEF75A
:1049E0005FF801E0C4F81C22304B94F84622B4F87A
:1049F0004412D4F83802FEF753F894F84C1294F8A5
:104A000020222B4BD4F850020A440821FEF748F824
:104A1000284BD4F8640202222421FEF741F894F8CE
:104A20008022254BB4F87412D4F86C02013A92B289
:104A3000FEF736F81E48FEF75EF8054668B91F4BCC
:104A400001931F4B00931F491F4B204A2048FCF73E
:104A5000ADFB2946284607F0FBFD1E4A2846111FDC
:104A6000FEF79DF894F8D43043F0070384F8D4306F
:104A70001F2384F82E32252384F82F321B23FF2096
:104A8000A4F832324FF4A47384F82A0284F82B027B
:104A900084F82C0284F82D02A4F83432BD46BDE817
:104AA000B040FFF745BF00BF440B0020800D002041
:104AB000980D0020AC0D0020B40D00204EDD00004C
:104AC00053DD000004DD000009F10000FDDC000002
:104AD00011E40000A00D00202DE9F84F0C7894425D
:104AE00000AF8246884691463CD0204ED6F87C32B4
:104AF00033F83430038000254FF0010B22B2D6F892
:104B00007C02BAF800E000EBC20130F83220964592
:104B100023D14868012820F003030AD973B1021D8C
:104B20000CD0427952B1027902F00302013A012A13
:104B300004D80135C1F804B0EDB201E002224A60A8
:104B400013B10B49FDF7F3FF013496F88022E4B26C
:104B5000A24208BF00244C45D0D188F80040284626
:104B6000BDE8F88F0020BDE8F88F00BF440B00209F
:104B7000B40D002098B50A4B93F82022824200AF72
:104B800004460AD902464FF48871D3F81802FDF79B
:104B9000EEFF10B1038CA34200D0002098BD00BFEF
:104BA000440B00202DE9F047052886B0044602AFEB
:104BB0008A4607D006280BD19E4BD3F8B091D3F884
:104BC000B46122E09B4BD3F8C490D3F8C8601CE0DA
:104BD0000BD9073880B2FFF7CDFF10B94FF00108AD
:104BE00022E1D0F8009046680FE0934B0193934B7D
:104BF0000093934A934B94499448FCF7D7FA0021C9
:104C0000084607F025FD0026B146914B0097224645
:104C100003210020FFF7F4FB38603B68022B05D02E
:104C2000D7F80080B8F1000F0FD0D7E7814B5B7B3E
:104C30009C4204D101221146104606F05BFB3B6802
:104C4000022BEDD1FFF7B6FCF9E77A4D2B7B9C42A6
:104C500003D06B7B9C4240F0E7803B1D0022009319
:104C600003217B4B1046FFF7CBFB78607B68022B60
:104C700015D101221146104606F03CFB7B68022B41
:104C80000DD16D4B01936D4B00936F49714B6C4A85
:104C90007148FCF78BFA0021084607F0D9FC7C68C4
:104CA000002C5BD107F1080300930122684B03211C
:104CB0002046FFF7A5FBB860BB68022B15D1012287
:104CC0001146104606F016FB7B68022B0DD15A4B9D
:104CD00001935A4B00935C495E4B594A5E48FCF77E
:104CE00065FA2146204607F0B3FCBA68E2B9B1453F
:104CF00018D25A4B11460120FDF79EFF002800F004
:104D000093804D4B01934D4B00934D4A514B4E496F
:104D10005348FCF74BFA0021084607F099FC4FF086
:104D2000000881E04F4BE5E7B868012819D100225F
:104D30004A4B1146FDF780FF68B13F4B01933F4B53
:104D400000934149434B3E4A4548FCF72FFA002166
:104D5000084607F07DFC434B0022CBE77C68012C22
:104D60000ED0354B0193354B0093354A394B3649BC
:104D70003648FCF71BFA0021084607F069FC53E0AF
:104D800007F10C0300935246314B03210020FFF73B
:104D900037FBF860FB68022B15D1224621462046DE
:104DA00006F0A8FA7B68022B0DD1234B0193234B0D
:104DB00000932549274B224A2748FCF7F7F90021A1
:104DC000084607F045FCFB6883B1FB68012B0DD05A
:104DD000194B0193194B00931B491E4B184A22484B
:104DE000FCF7E4F90021084607F032FCAB7BDBB1AD
:104DF0001E4B04229A60002211460120FDF71CFF81
:104E000068B10D4B01930D4B00930F49114B0C4AA8
:104E10001348FCF7CBF90021084607F019FCAB7BDF
:104E200013B1FFF7C7FBFAE740461037BD46BDE8B0
:104E3000F08700BF440B00204EDD000053DD000072
:104E4000FDDC0000E4F2000004DD000091E1000060
:104E5000C1450000FEEF000037E4000070020020B2
:104E600071E40000100200209AE40000000200201B
:104E700090B5C4B2231F83B0012B02AF0DD9114BE3
:104E80000193114B00931149114B124A1248FCF740
:104E90008DF90021084607F0DBFB104AD37B4BB1AC
:104EA000043B012B06D9D4730437BD46BDE89040BE
:104EB000FEF76AB9FEF796F90028F5D00437BD462B
:104EC00090BD00BF4EDD000053DD000004DD00009A
:104ED00075F30000FDDC0000F2E40000440B00204C
:104EE000B0B590F8B830028E03F01003044600AF5E
:104EF0000D4603F0FF005BB10432D2B2082100205E
:104F0000FEF700F9294604F1B900FEF70DFB04E0B5
:104F1000D2B20821FEF7F6F82846BD46BDE8B040FB
:104F2000FEF712B92DE9F041184C82B094F8845282
:104F300094F880320135EDB2AB4208BF002594F8F9
:104F40008332AB4202AF80460E460DD1104B019327
:104F5000104B00931049114B114A1248FCF726F9E7
:104F60000021084607F074FB94F88422D4F87C32C0
:104F700023F8328094F8842203EBC2035E6084F845
:104F80008452BD46BDE8F04106F056BA440B0020FD
:104F90004EDD000053DD000004DD0000EAEF0000FC
:104FA000FDDC000043E500002DE9F84F274D00AF80
:104FB0000646A9464FF00008002E45D095F88132EC
:104FC00095F882229A423FD095F881A2D5F878B21E
:104FD000D5F818023BF83A200BEBCA034FF488715E
:104FE0005C68C4F80080FDF7C2FD3BF83A30028CE3
:104FF0009A4212D1D0F8043143B9D0F8FC30C0F84D
:1050000004411BB9C0F8FC40C0F80831D0F80831A1
:1050100003B11C60C0F8084108E023796FF3010375
:10502000237121463BF83A00FFF77CFF99F8813263
:1050300099F880220133DBB29A4208BF0023013E77
:1050400089F88132F6B2B7E7BDE8F88F440B00204B
:10505000B0B5012282B004461146002002AF06F02E
:1050600049F994F8202041F62C03002107320093DF
:10507000D2B24D4B0846FFF7C3F930F002030DD012
:105080004A4B01934A4B00934A494B4B4B4A4C487D
:10509000FCF78CF80021084607F0DAFA494DEB7B63
:1050A000052B49D1238C2A7B07339A4244D141F600
:1050B00038030021009301223B4B0846FFF7A0F97B
:1050C00030F002030DD0394B0193394B009339492D
:1050D000394B3A4A3A48FCF769F80021084607F08C
:1050E000B7FA002241F63F03009311462E4B1046BB
:1050F000FFF786F930F002031ED02C4B01932C4BA6
:1051000000932E4A2C4B2B492D48FCF74FF80021D9
:10511000084607F09DFA0FE0D4F8043199421ED0FA
:105120000B796FF301030B71D4F8FC30208C1B68F2
:10513000C4F8FC30FFF7F6FED4F8FC10D4F80031C8
:105140009942E9D10BE0D4F8043198420BD00368BE
:10515000C4F8FC30C4F800311B49FDF7E8FCD4F872
:10516000FC000028EFD10023C4F80031D4F8FC1073
:1051700071B10B796FF301030B71D4F8FC30208C03
:105180001B68C4F8FC30C4F80431FFF7CBFEEDE730
:105190004FF6FF732384D5F894329C4204BF094B29
:1051A000C3F89412BD46B0BD595C00004EDD00004E
:1051B00053DD000004DD00001FF00000FDDC0000F6
:1051C00088E50000440B0020AC0D0020F8B590F8F5
:1051D000B8300446180600AF0E4630D4D4F8FC00B0
:1051E00068B3190700F1040243D54179002940D082
:1051F000017901F00301032921D194F8441011F041
:10520000010F03F04001C3790BD109B9022B03E070
:10521000991E01292DD90B2B2BD0112B0FD82E49DC
:1052200009E009B9022B02E0022B22D0042B20D086
:10523000112B04D8294921FA03F3DB0719D494F878
:10524000B83043F0800384F8B830FDF7EDFF037801
:10525000012262F30103037000234370D4F8FC20A1
:10526000037812B143F0100301E062F304130370FA
:1052700029E094F80D3194F80C11D01811B9417847
:1052800084F80C1123B1D15C012565F30101D154DF
:1052900094F80C1194F80D514D1BEDB24570D15C92
:1052A0006FF30411D154E18DA9423FBF4170D15C2D
:1052B00041F01001D154D4F8FC10096819B1D15C47
:1052C00041F01001D15403786FF3471303700023AA
:1052D00083703060F8BD00BF4020020060200200F3
:1052E000B0B590F8B830C28D03F02003044600AF8B
:1052F0000D4603F0FF005BB10432D2B2082100205A
:10530000FDF700FF294604F1DA00FEF745F904E055
:10531000D2B20821FDF7F6FE2846BD46BDE8B040F2
:10532000FDF71ABF90B5262883B0044602AF05D01A
:10533000272807D0252807D1022000E01A20FDF7F2
:10534000B7FE18E05020FAE70A2801D8023002E040
:10535000272802D803304000F1E70A4B01930A4B9B
:1053600000930A490A4B0B4A0B48FBF71FFF002129
:10537000084607F06DF920460437BD46BDE8904069
:10538000FDF79EBE4EDD000053DD000004DD000091
:105390000BF20000FDDC000091E10000B0B51C4CF8
:1053A00094F8573194F858219A4200AF06D001334F
:1053B000DBB2022B08BF002384F8573194F8573131
:1053C000282000FB034000F20710FDF7C5FEFDF7A3
:1053D00037FF94F8D430C3F3C203DAB21146002089
:1053E00011F0010F00F1010502D149082846F7E745
:1053F000013A134094F8D420C0B263F3C5022530BB
:1054000084F8D420BD46BDE8B040FFF78BBF00BF95
:10541000440B0020000000002DE9F04F8FB004AFD6
:105420008246FB6003683960002B914608DA816888
:10543000426823F0004391422CBF5B1A9B1A00E0A4
:1054400000230024BB60FF237B767C83FC613C62ED
:105450003B619B467C6125467C6007F124030293F7
:105460007D4B019307F12003009307F1190207F127
:105470001C0301210020FEF7FFFF78627B6A022BEC
:1054800004D101210020FFF775F8F7E77B6A6BB1C3
:10549000724B0193724B00937249734B734A744879
:1054A000FBF784FE0021084607F0D2F87B7EFF2B35
:1054B00000F09380BBF1FF0F11D0FB697A689A422C
:1054C0000DD0664B0193664B00936649664B674A65
:1054D0006848FBF76BFE0021084607F0B9F87A7EB2
:1054E000042A75D9062A72D93B69FF2B75D1624B04
:1054F000073A92B24FF48871D3F81802FDF737FBE0
:105500008245804664D03B681BB990F84430DB0785
:105510005ED4BB683E6A1E44D8F80030002B0CDA1B
:10552000D8F80800D8F8041023F0004288422CBFB5
:10553000C2EB0003C2EB01031E44D9F800309E42C7
:105540003BD99D4238BF1D464FF0070B3B6D1B7882
:10555000A3422CD929463046FFF726F8D8F80C305C
:105560007A6964331344984221D37B69434AEB1828
:10557000A3FB02010BFB031135A3D3E90023FAF7C8
:105580004DFE40F2E243B0FBF3F0FB6880B298427C
:1055900078830BD27B6D022203EB440007F11A01E2
:1055A0000134FBF75CFCE4B22835CFE700257B8BA8
:1055B000FA68C9F8005093420FD2FB697B60D8F8B3
:1055C0000C3097F819B064337B61354600E03A61DE
:1055D0003B6D1B78A3423FF640AF7B7EFF2B2ED165
:1055E000D9F80030254E9D4238BF1D464FF00708C0
:1055F0003B6D1B78A34220D97B69EB18A3FB060106
:1056000008FB031112A3D3E90023FAF707FE40F2C7
:10561000E243B0FBF3F0FB6880B2834278830BD99E
:105620007B6D022203EB440007F11A010134FBF702
:1056300016FCE4B22835DBE70025C9F800503B6DC5
:105640002C371C70BD46BDE8F08F00BFAFF3008063
:1056500000CA9A3B00000000C14500004EDD00007A
:1056600053DD000004DD0000FEF20000FDDC000060
:10567000DDE3000091E10000440B00208D49FD1A9C
:105680002DE9F04389B0B0F8762002AF04463448E3
:105690000623A2FB00017B7140F2231303FB0211DE
:1056A0002DA3D3E90023FAF7B9FD07F11802791DFC
:1056B00007F10C0642F8100DB4F86C300091019619
:1056C00001212046FFF7A8FE04F1760504F18208C7
:1056D0004FF6FF7902222946B81DFBF7C0FB787907
:1056E000FA880023D9B2884207D94A4503D036F850
:1056F00013108A4220D00133F4E702354545E9D141
:1057000094F8683084F86930164B0022C3F894226C
:10571000D4F8903013F8052C42F0030203F8052C5E
:10572000032203F8042C112203F8022C0F2203F8A1
:10573000012C20221A700AE040F2E2435343C4F8DD
:105740008C300222B91DD4F89000FBF788FB1C377F
:10575000BD46BDE8F08300BF8D49FD1A070000007B
:105760000054CE09440B002080B584B002AF002362
:105770007B600623FB7090F84430DB0742BF024693
:10578000436E42F8883FD0F89010019107F1030171
:1057900058BF3A1D0091B0F86C300021FFF73CFE75
:1057A0000837BD4680BD00002DE9F04F8BB004AF37
:1057B0000024FF2581468A4693469846FD731C6067
:1057C0003C61264607F1140302933D4B019307F118
:1057D0001003009307F10F025B4649460020FEF7D5
:1057E0004BFE78617B69022B04D149460020FEF70D
:1057F000C1FEF7E77B696BB1324B0193324B0093EB
:105800003249334B334A3448FBF7D0FC0021084679
:1058100006F01EFFFA7BFF2A45D0062AD2D92F4B6D
:10582000073AD3F8180292B24FF48871FDF79FF946
:1058300003460028C6D090F84420D207C2D4D0F83E
:1058400000E03A69BEF1000F09DA416880682EF085
:10585000004E88422CBF12185218CEEB0202FF2DC8
:1058600004D1DC68FD7B27341646ABE73146104691
:105870003B607A60FEF798FE0AF1020121448842FB
:105880007A683B68EDD916483444A4FB000107232D
:1058900003FB041108A3D3E90023FAF7BFFC20306F
:1058A000C8F8000001E0FF2DEDD11C37BD46BDE872
:1058B000F08F00BFAFF3008000CA9A3B00000000E9
:1058C000C14500004EDD000053DD000004DD000096
:1058D000CBEF0000FDDC0000DDE30000440B002006
:1058E0008D49FD1AAFF30080F0B583B000AF1646C6
:1058F00007F10802054642F8046D012027311C46D5
:10590000FFF752FF7868864211D03146FEF74CFE11
:10591000114B0246A0FB0301072303FB02110CA35A
:10592000D3E90023FAF77AFC23681844206023683F
:10593000002B08DB40F2E24068432368984202D221
:105940001B1A2360F9E70C37BD46F0BDAFF30080AA
:1059500000CA9A3B000000008D49FD1AAFF3008099
:1059600090B583B0044600AF00F18C03D0F88420DA
:10597000C168808CFFF7B8FF07F10801D4F88C30BC
:10598000D4F8900040F2E242B3FBF2F3022221F895
:10599000023DFBF764FA0C37BD4690BD90B4064C4F
:1059A0000246D4F80C12B4F8060200AF04F50573F1
:1059B000BD4690BCFFF798BF440B002090B5224C29
:1059C00083B094F84D3294F84E229A4202AF0DD132
:1059D0001E4B01931E4B00931E491F4B1F4A20482C
:1059E000FBF7E4FB0021084606F032FE94F84D2256
:1059F000D4F8483253F8220094F8843201680370D6
:105A000094F84D3294F84C220133DBB29A4208BF2D
:105A10000023144A84F84D32FDF7C6F8044668B9ED
:105A20000A4B01930A4B00930A490B4B0B4A0E4851
:105A3000FBF7BCFB2146204606F00AFE0437BD46B4
:105A4000BDE8904005F0F8BC440B00204EDD00009E
:105A500053DD000004DD00002EF20000FDDC00003C
:105A6000D6E50000A00D002011E4000090B583B041
:105A700041F2230300210522009302AF374B084671
:105A8000FEF7BEFC30F002030DD0354B0193354BD1
:105A900000933549354B364A3648FBF787FB0021E2
:105AA000084606F0D5FD41F22D03002100930122A6
:105AB0002A4B0846FEF7A4FC30F002030DD0284B19
:105AC0000193284B00932849284B294A2948FBF782
:105AD0006DFB0021084606F0BBFD002241F23203B7
